{
  "_format": "hh-sol-artifact-1",
  "contractName": "NftRoyalty",
  "sourceName": "contracts/NftRoyalty.sol",
  "abi": [
    {
      "inputs": [
        {
          "internalType": "string",
          "name": "name",
          "type": "string"
        },
        {
          "internalType": "string",
          "name": "symbol",
          "type": "string"
        }
      ],
      "stateMutability": "nonpayable",
      "type": "constructor"
    },
    {
      "anonymous": false,
      "inputs": [
        {
          "indexed": true,
          "internalType": "address",
          "name": "owner",
          "type": "address"
        },
        {
          "indexed": true,
          "internalType": "address",
          "name": "approved",
          "type": "address"
        },
        {
          "indexed": true,
          "internalType": "uint256",
          "name": "tokenId",
          "type": "uint256"
        }
      ],
      "name": "Approval",
      "type": "event"
    },
    {
      "anonymous": false,
      "inputs": [
        {
          "indexed": true,
          "internalType": "address",
          "name": "owner",
          "type": "address"
        },
        {
          "indexed": true,
          "internalType": "address",
          "name": "operator",
          "type": "address"
        },
        {
          "indexed": false,
          "internalType": "bool",
          "name": "approved",
          "type": "bool"
        }
      ],
      "name": "ApprovalForAll",
      "type": "event"
    },
    {
      "anonymous": false,
      "inputs": [
        {
          "indexed": true,
          "internalType": "address",
          "name": "from",
          "type": "address"
        },
        {
          "indexed": true,
          "internalType": "address",
          "name": "to",
          "type": "address"
        },
        {
          "indexed": true,
          "internalType": "uint256",
          "name": "tokenId",
          "type": "uint256"
        }
      ],
      "name": "Transfer",
      "type": "event"
    },
    {
      "inputs": [
        {
          "internalType": "address",
          "name": "to",
          "type": "address"
        },
        {
          "internalType": "uint256",
          "name": "tokenId",
          "type": "uint256"
        }
      ],
      "name": "approve",
      "outputs": [],
      "stateMutability": "nonpayable",
      "type": "function"
    },
    {
      "inputs": [
        {
          "internalType": "address",
          "name": "owner",
          "type": "address"
        }
      ],
      "name": "balanceOf",
      "outputs": [
        {
          "internalType": "uint256",
          "name": "",
          "type": "uint256"
        }
      ],
      "stateMutability": "view",
      "type": "function"
    },
    {
      "inputs": [
        {
          "internalType": "uint256",
          "name": "tokenId",
          "type": "uint256"
        }
      ],
      "name": "getApproved",
      "outputs": [
        {
          "internalType": "address",
          "name": "",
          "type": "address"
        }
      ],
      "stateMutability": "view",
      "type": "function"
    },
    {
      "inputs": [
        {
          "internalType": "uint256",
          "name": "tokenId",
          "type": "uint256"
        }
      ],
      "name": "getRoyaltyData",
      "outputs": [
        {
          "internalType": "uint256",
          "name": "artistRoyalty",
          "type": "uint256"
        },
        {
          "internalType": "address",
          "name": "artistAddr",
          "type": "address"
        },
        {
          "internalType": "uint256",
          "name": "charityRoyalty",
          "type": "uint256"
        },
        {
          "internalType": "address",
          "name": "charityAddr",
          "type": "address"
        }
      ],
      "stateMutability": "view",
      "type": "function"
    },
    {
      "inputs": [
        {
          "internalType": "address",
          "name": "owner",
          "type": "address"
        },
        {
          "internalType": "address",
          "name": "operator",
          "type": "address"
        }
      ],
      "name": "isApprovedForAll",
      "outputs": [
        {
          "internalType": "bool",
          "name": "",
          "type": "bool"
        }
      ],
      "stateMutability": "view",
      "type": "function"
    },
    {
      "inputs": [
        {
          "internalType": "address",
          "name": "_recipient",
          "type": "address"
        },
        {
          "internalType": "string",
          "name": "_tokenURI",
          "type": "string"
        },
        {
          "internalType": "uint256",
          "name": "_creatorRoyalty",
          "type": "uint256"
        },
        {
          "internalType": "uint256",
          "name": "_charityRoyalty",
          "type": "uint256"
        },
        {
          "internalType": "address",
          "name": "_charityAddr",
          "type": "address"
        }
      ],
      "name": "mint",
      "outputs": [
        {
          "internalType": "uint256",
          "name": "",
          "type": "uint256"
        }
      ],
      "stateMutability": "nonpayable",
      "type": "function"
    },
    {
      "inputs": [],
      "name": "name",
      "outputs": [
        {
          "internalType": "string",
          "name": "",
          "type": "string"
        }
      ],
      "stateMutability": "view",
      "type": "function"
    },
    {
      "inputs": [
        {
          "internalType": "uint256",
          "name": "tokenId",
          "type": "uint256"
        }
      ],
      "name": "ownerOf",
      "outputs": [
        {
          "internalType": "address",
          "name": "",
          "type": "address"
        }
      ],
      "stateMutability": "view",
      "type": "function"
    },
    {
      "inputs": [
        {
          "internalType": "address",
          "name": "from",
          "type": "address"
        },
        {
          "internalType": "address",
          "name": "to",
          "type": "address"
        },
        {
          "internalType": "uint256",
          "name": "tokenId",
          "type": "uint256"
        }
      ],
      "name": "safeTransferFrom",
      "outputs": [],
      "stateMutability": "nonpayable",
      "type": "function"
    },
    {
      "inputs": [
        {
          "internalType": "address",
          "name": "from",
          "type": "address"
        },
        {
          "internalType": "address",
          "name": "to",
          "type": "address"
        },
        {
          "internalType": "uint256",
          "name": "tokenId",
          "type": "uint256"
        },
        {
          "internalType": "bytes",
          "name": "_data",
          "type": "bytes"
        }
      ],
      "name": "safeTransferFrom",
      "outputs": [],
      "stateMutability": "nonpayable",
      "type": "function"
    },
    {
      "inputs": [
        {
          "internalType": "address",
          "name": "operator",
          "type": "address"
        },
        {
          "internalType": "bool",
          "name": "approved",
          "type": "bool"
        }
      ],
      "name": "setApprovalForAll",
      "outputs": [],
      "stateMutability": "nonpayable",
      "type": "function"
    },
    {
      "inputs": [
        {
          "internalType": "bytes4",
          "name": "interfaceId",
          "type": "bytes4"
        }
      ],
      "name": "supportsInterface",
      "outputs": [
        {
          "internalType": "bool",
          "name": "",
          "type": "bool"
        }
      ],
      "stateMutability": "view",
      "type": "function"
    },
    {
      "inputs": [],
      "name": "symbol",
      "outputs": [
        {
          "internalType": "string",
          "name": "",
          "type": "string"
        }
      ],
      "stateMutability": "view",
      "type": "function"
    },
    {
      "inputs": [
        {
          "internalType": "uint256",
          "name": "tokenId",
          "type": "uint256"
        }
      ],
      "name": "tokenURI",
      "outputs": [
        {
          "internalType": "string",
          "name": "",
          "type": "string"
        }
      ],
      "stateMutability": "view",
      "type": "function"
    },
    {
      "inputs": [
        {
          "internalType": "address",
          "name": "from",
          "type": "address"
        },
        {
          "internalType": "address",
          "name": "to",
          "type": "address"
        },
        {
          "internalType": "uint256",
          "name": "tokenId",
          "type": "uint256"
        }
      ],
      "name": "transferFrom",
      "outputs": [],
      "stateMutability": "nonpayable",
      "type": "function"
    }
  ],
  "bytecode": "0x60806040523480156200001157600080fd5b506040516200329c3803806200329c833981810160405281019062000037919062000197565b818181600090805190602001906200005192919062000075565b5080600190805190602001906200006a92919062000075565b50505050506200037a565b82805462000083906200029f565b90600052602060002090601f016020900481019282620000a75760008555620000f3565b82601f10620000c257805160ff1916838001178555620000f3565b82800160010185558215620000f3579182015b82811115620000f2578251825591602001919060010190620000d5565b5b50905062000102919062000106565b5090565b5b808211156200012157600081600090555060010162000107565b5090565b60006200013c620001368462000233565b6200020a565b9050828152602081018484840111156200015557600080fd5b6200016284828562000269565b509392505050565b600082601f8301126200017c57600080fd5b81516200018e84826020860162000125565b91505092915050565b60008060408385031215620001ab57600080fd5b600083015167ffffffffffffffff811115620001c657600080fd5b620001d4858286016200016a565b925050602083015167ffffffffffffffff811115620001f257600080fd5b62000200858286016200016a565b9150509250929050565b60006200021662000229565b9050620002248282620002d5565b919050565b6000604051905090565b600067ffffffffffffffff8211156200025157620002506200033a565b5b6200025c8262000369565b9050602081019050919050565b60005b83811015620002895780820151818401526020810190506200026c565b8381111562000299576000848401525b50505050565b60006002820490506001821680620002b857607f821691505b60208210811415620002cf57620002ce6200030b565b5b50919050565b620002e08262000369565b810181811067ffffffffffffffff821117156200030257620003016200033a565b5b80604052505050565b7f4e487b7100000000000000000000000000000000000000000000000000000000600052602260045260246000fd5b7f4e487b7100000000000000000000000000000000000000000000000000000000600052604160045260246000fd5b6000601f19601f8301169050919050565b612f12806200038a6000396000f3fe608060405234801561001057600080fd5b50600436106100f55760003560e01c806370a0823111610097578063a65ff74c11610066578063a65ff74c14610296578063b88d4fde146102c9578063c87b56dd146102e5578063e985e9c514610315576100f5565b806370a08231146101fc578063785a0a111461022c57806395d89b411461025c578063a22cb4651461027a576100f5565b8063095ea7b3116100d3578063095ea7b31461017857806323b872dd1461019457806342842e0e146101b05780636352211e146101cc576100f5565b806301ffc9a7146100fa57806306fdde031461012a578063081812fc14610148575b600080fd5b610114600480360381019061010f9190611f0e565b610345565b6040516101219190612337565b60405180910390f35b610132610427565b60405161013f9190612352565b60405180910390f35b610162600480360381019061015d9190611f60565b6104b9565b60405161016f91906122d0565b60405180910390f35b610192600480360381019061018d9190611ed2565b61053e565b005b6101ae60048036038101906101a99190611d3d565b610656565b005b6101ca60048036038101906101c59190611d3d565b6106b6565b005b6101e660048036038101906101e19190611f60565b6106d6565b6040516101f391906122d0565b60405180910390f35b61021660048036038101906102119190611cd8565b610788565b6040516102239190612594565b60405180910390f35b61024660048036038101906102419190611e43565b610840565b6040516102539190612594565b60405180910390f35b61026461087f565b6040516102719190612352565b60405180910390f35b610294600480360381019061028f9190611e07565b610911565b005b6102b060048036038101906102ab9190611f60565b610927565b6040516102c094939291906125af565b60405180910390f35b6102e360048036038101906102de9190611d8c565b610a20565b005b6102ff60048036038101906102fa9190611f60565b610a82565b60405161030c9190612352565b60405180910390f35b61032f600480360381019061032a9190611d01565b610bd7565b60405161033c9190612337565b60405180910390f35b60007f80ac58cd000000000000000000000000000000000000000000000000000000007bffffffffffffffffffffffffffffffffffffffffffffffffffffffff1916827bffffffffffffffffffffffffffffffffffffffffffffffffffffffff1916148061041057507f5b5e139f000000000000000000000000000000000000000000000000000000007bffffffffffffffffffffffffffffffffffffffffffffffffffffffff1916827bffffffffffffffffffffffffffffffffffffffffffffffffffffffff1916145b80610420575061041f82610c6b565b5b9050919050565b6060600080546104369061282f565b80601f01602080910402602001604051908101604052809291908181526020018280546104629061282f565b80156104af5780601f10610484576101008083540402835291602001916104af565b820191906000526020600020905b81548152906001019060200180831161049257829003601f168201915b5050505050905090565b60006104c482610cd5565b610503576040517f08c379a00000000000000000000000000000000000000000000000000000000081526004016104fa906124f4565b60405180910390fd5b6004600083815260200190815260200160002060009054906101000a900473ffffffffffffffffffffffffffffffffffffffff169050919050565b6000610549826106d6565b90508073ffffffffffffffffffffffffffffffffffffffff168373ffffffffffffffffffffffffffffffffffffffff1614156105ba576040517f08c379a00000000000000000000000000000000000000000000000000000000081526004016105b190612554565b60405180910390fd5b8073ffffffffffffffffffffffffffffffffffffffff166105d9610d41565b73ffffffffffffffffffffffffffffffffffffffff161480610608575061060781610602610d41565b610bd7565b5b610647576040517f08c379a000000000000000000000000000000000000000000000000000000000815260040161063e90612474565b60405180910390fd5b6106518383610d49565b505050565b610667610661610d41565b82610e02565b6106a6576040517f08c379a000000000000000000000000000000000000000000000000000000000815260040161069d90612574565b60405180910390fd5b6106b1838383610ee0565b505050565b6106d183838360405180602001604052806000815250610a20565b505050565b6000806002600084815260200190815260200160002060009054906101000a900473ffffffffffffffffffffffffffffffffffffffff169050600073ffffffffffffffffffffffffffffffffffffffff168173ffffffffffffffffffffffffffffffffffffffff16141561077f576040517f08c379a0000000000000000000000000000000000000000000000000000000008152600401610776906124b4565b60405180910390fd5b80915050919050565b60008073ffffffffffffffffffffffffffffffffffffffff168273ffffffffffffffffffffffffffffffffffffffff1614156107f9576040517f08c379a00000000000000000000000000000000000000000000000000000000081526004016107f090612494565b60405180910390fd5b600360008373ffffffffffffffffffffffffffffffffffffffff1673ffffffffffffffffffffffffffffffffffffffff168152602001908152602001600020549050919050565b600061084c600761113c565b60006108586007611152565b90506108648782611160565b61087281878733888861132e565b8091505095945050505050565b60606001805461088e9061282f565b80601f01602080910402602001604051908101604052809291908181526020018280546108ba9061282f565b80156109075780601f106108dc57610100808354040283529160200191610907565b820191906000526020600020905b8154815290600101906020018083116108ea57829003601f168201915b5050505050905090565b61092361091c610d41565b8383611519565b5050565b60008060008061093685610cd5565b610975576040517f08c379a000000000000000000000000000000000000000000000000000000000815260040161096c90612454565b60405180910390fd5b600660008681526020019081526020016000206001015493506006600086815260200190815260200160002060020160009054906101000a900473ffffffffffffffffffffffffffffffffffffffff169250600660008681526020019081526020016000206003015491506006600086815260200190815260200160002060040160009054906101000a900473ffffffffffffffffffffffffffffffffffffffff1690509193509193565b610a31610a2b610d41565b83610e02565b610a70576040517f08c379a0000000000000000000000000000000000000000000000000000000008152600401610a6790612574565b60405180910390fd5b610a7c84848484611686565b50505050565b6060610a8d82610cd5565b610acc576040517f08c379a0000000000000000000000000000000000000000000000000000000008152600401610ac390612454565b60405180910390fd5b6000600660008481526020019081526020016000206000018054610aef9061282f565b80601f0160208091040260200160405190810160405280929190818152602001828054610b1b9061282f565b8015610b685780601f10610b3d57610100808354040283529160200191610b68565b820191906000526020600020905b815481529060010190602001808311610b4b57829003601f168201915b505050505090506000610b796116e2565b9050600081511415610b8f578192505050610bd2565b600082511115610bc4578082604051602001610bac9291906122ac565b60405160208183030381529060405292505050610bd2565b610bcd846116f9565b925050505b919050565b6000600560008473ffffffffffffffffffffffffffffffffffffffff1673ffffffffffffffffffffffffffffffffffffffff16815260200190815260200160002060008373ffffffffffffffffffffffffffffffffffffffff1673ffffffffffffffffffffffffffffffffffffffff16815260200190815260200160002060009054906101000a900460ff16905092915050565b60007f01ffc9a7000000000000000000000000000000000000000000000000000000007bffffffffffffffffffffffffffffffffffffffffffffffffffffffff1916827bffffffffffffffffffffffffffffffffffffffffffffffffffffffff1916149050919050565b60008073ffffffffffffffffffffffffffffffffffffffff166002600084815260200190815260200160002060009054906101000a900473ffffffffffffffffffffffffffffffffffffffff1673ffffffffffffffffffffffffffffffffffffffff1614159050919050565b600033905090565b816004600083815260200190815260200160002060006101000a81548173ffffffffffffffffffffffffffffffffffffffff021916908373ffffffffffffffffffffffffffffffffffffffff160217905550808273ffffffffffffffffffffffffffffffffffffffff16610dbc836106d6565b73ffffffffffffffffffffffffffffffffffffffff167f8c5be1e5ebec7d5bd14f71427d1e84f3dd0314c0f7b2291e5b200ac8c7c3b92560405160405180910390a45050565b6000610e0d82610cd5565b610e4c576040517f08c379a0000000000000000000000000000000000000000000000000000000008152600401610e4390612414565b60405180910390fd5b6000610e57836106d6565b90508073ffffffffffffffffffffffffffffffffffffffff168473ffffffffffffffffffffffffffffffffffffffff161480610ec657508373ffffffffffffffffffffffffffffffffffffffff16610eae846104b9565b73ffffffffffffffffffffffffffffffffffffffff16145b80610ed75750610ed68185610bd7565b5b91505092915050565b8273ffffffffffffffffffffffffffffffffffffffff16610f00826106d6565b73ffffffffffffffffffffffffffffffffffffffff1614610f56576040517f08c379a0000000000000000000000000000000000000000000000000000000008152600401610f4d90612514565b60405180910390fd5b600073ffffffffffffffffffffffffffffffffffffffff168273ffffffffffffffffffffffffffffffffffffffff161415610fc6576040517f08c379a0000000000000000000000000000000000000000000000000000000008152600401610fbd906123d4565b60405180910390fd5b610fd18383836117a0565b610fdc600082610d49565b6001600360008573ffffffffffffffffffffffffffffffffffffffff1673ffffffffffffffffffffffffffffffffffffffff168152602001908152602001600020600082825461102c9190612745565b925050819055506001600360008473ffffffffffffffffffffffffffffffffffffffff1673ffffffffffffffffffffffffffffffffffffffff168152602001908152602001600020600082825461108391906126be565b92505081905550816002600083815260200190815260200160002060006101000a81548173ffffffffffffffffffffffffffffffffffffffff021916908373ffffffffffffffffffffffffffffffffffffffff160217905550808273ffffffffffffffffffffffffffffffffffffffff168473ffffffffffffffffffffffffffffffffffffffff167fddf252ad1be2c89b69c2b068fc378daa952ba7f163c4a11628f55a4df523b3ef60405160405180910390a4505050565b6001816000016000828254019250508190555050565b600081600001549050919050565b600073ffffffffffffffffffffffffffffffffffffffff168273ffffffffffffffffffffffffffffffffffffffff1614156111d0576040517f08c379a00000000000000000000000000000000000000000000000000000000081526004016111c7906124d4565b60405180910390fd5b6111d981610cd5565b15611219576040517f08c379a000000000000000000000000000000000000000000000000000000000815260040161121090612394565b60405180910390fd5b611225600083836117a0565b6001600360008473ffffffffffffffffffffffffffffffffffffffff1673ffffffffffffffffffffffffffffffffffffffff168152602001908152602001600020600082825461127591906126be565b92505081905550816002600083815260200190815260200160002060006101000a81548173ffffffffffffffffffffffffffffffffffffffff021916908373ffffffffffffffffffffffffffffffffffffffff160217905550808273ffffffffffffffffffffffffffffffffffffffff16600073ffffffffffffffffffffffffffffffffffffffff167fddf252ad1be2c89b69c2b068fc378daa952ba7f163c4a11628f55a4df523b3ef60405160405180910390a45050565b61133786610cd5565b611376576040517f08c379a000000000000000000000000000000000000000000000000000000000815260040161136d906123b4565b60405180910390fd5b61271061ffff1684106113be576040517f08c379a00000000000000000000000000000000000000000000000000000000081526004016113b590612434565b60405180910390fd5b61271061ffff168210611406576040517f08c379a00000000000000000000000000000000000000000000000000000000081526004016113fd90612434565b60405180910390fd5b84600660008881526020019081526020016000206000019080519060200190611430929190611afc565b50836006600088815260200190815260200160002060010181905550826006600088815260200190815260200160002060020160006101000a81548173ffffffffffffffffffffffffffffffffffffffff021916908373ffffffffffffffffffffffffffffffffffffffff160217905550816006600088815260200190815260200160002060030181905550806006600088815260200190815260200160002060040160006101000a81548173ffffffffffffffffffffffffffffffffffffffff021916908373ffffffffffffffffffffffffffffffffffffffff160217905550505050505050565b8173ffffffffffffffffffffffffffffffffffffffff168373ffffffffffffffffffffffffffffffffffffffff161415611588576040517f08c379a000000000000000000000000000000000000000000000000000000000815260040161157f906123f4565b60405180910390fd5b80600560008573ffffffffffffffffffffffffffffffffffffffff1673ffffffffffffffffffffffffffffffffffffffff16815260200190815260200160002060008473ffffffffffffffffffffffffffffffffffffffff1673ffffffffffffffffffffffffffffffffffffffff16815260200190815260200160002060006101000a81548160ff0219169083151502179055508173ffffffffffffffffffffffffffffffffffffffff168373ffffffffffffffffffffffffffffffffffffffff167f17307eab39ab6107e8899845ad3d59bd9653f200f220920489ca2b5937696c31836040516116799190612337565b60405180910390a3505050565b611691848484610ee0565b61169d848484846117a5565b6116dc576040517f08c379a00000000000000000000000000000000000000000000000000000000081526004016116d390612374565b60405180910390fd5b50505050565b606060405180602001604052806000815250905090565b606061170482610cd5565b611743576040517f08c379a000000000000000000000000000000000000000000000000000000000815260040161173a90612534565b60405180910390fd5b600061174d6116e2565b9050600081511161176d5760405180602001604052806000815250611798565b806117778461193c565b6040516020016117889291906122ac565b6040516020818303038152906040525b915050919050565b505050565b60006117c68473ffffffffffffffffffffffffffffffffffffffff16611ae9565b1561192f578373ffffffffffffffffffffffffffffffffffffffff1663150b7a026117ef610d41565b8786866040518563ffffffff1660e01b815260040161181194939291906122eb565b602060405180830381600087803b15801561182b57600080fd5b505af192505050801561185c57506040513d601f19601f820116820180604052508101906118599190611f37565b60015b6118df573d806000811461188c576040519150601f19603f3d011682016040523d82523d6000602084013e611891565b606091505b506000815114156118d7576040517f08c379a00000000000000000000000000000000000000000000000000000000081526004016118ce90612374565b60405180910390fd5b805181602001fd5b63150b7a0260e01b7bffffffffffffffffffffffffffffffffffffffffffffffffffffffff1916817bffffffffffffffffffffffffffffffffffffffffffffffffffffffff191614915050611934565b600190505b949350505050565b60606000821415611984576040518060400160405280600181526020017f30000000000000000000000000000000000000000000000000000000000000008152509050611ae4565b600082905060005b600082146119b657808061199f90612892565b915050600a826119af9190612714565b915061198c565b60008167ffffffffffffffff8111156119f8577f4e487b7100000000000000000000000000000000000000000000000000000000600052604160045260246000fd5b6040519080825280601f01601f191660200182016040528015611a2a5781602001600182028036833780820191505090505b5090505b60008514611add57600182611a439190612745565b9150600a85611a5291906128db565b6030611a5e91906126be565b60f81b818381518110611a9a577f4e487b7100000000000000000000000000000000000000000000000000000000600052603260045260246000fd5b60200101907effffffffffffffffffffffffffffffffffffffffffffffffffffffffffffff1916908160001a905350600a85611ad69190612714565b9450611a2e565b8093505050505b919050565b600080823b905060008111915050919050565b828054611b089061282f565b90600052602060002090601f016020900481019282611b2a5760008555611b71565b82601f10611b4357805160ff1916838001178555611b71565b82800160010185558215611b71579182015b82811115611b70578251825591602001919060010190611b55565b5b509050611b7e9190611b82565b5090565b5b80821115611b9b576000816000905550600101611b83565b5090565b6000611bb2611bad84612619565b6125f4565b905082815260208101848484011115611bca57600080fd5b611bd58482856127ed565b509392505050565b6000611bf0611beb8461264a565b6125f4565b905082815260208101848484011115611c0857600080fd5b611c138482856127ed565b509392505050565b600081359050611c2a81612e80565b92915050565b600081359050611c3f81612e97565b92915050565b600081359050611c5481612eae565b92915050565b600081519050611c6981612eae565b92915050565b600082601f830112611c8057600080fd5b8135611c90848260208601611b9f565b91505092915050565b600082601f830112611caa57600080fd5b8135611cba848260208601611bdd565b91505092915050565b600081359050611cd281612ec5565b92915050565b600060208284031215611cea57600080fd5b6000611cf884828501611c1b565b91505092915050565b60008060408385031215611d1457600080fd5b6000611d2285828601611c1b565b9250506020611d3385828601611c1b565b9150509250929050565b600080600060608486031215611d5257600080fd5b6000611d6086828701611c1b565b9350506020611d7186828701611c1b565b9250506040611d8286828701611cc3565b9150509250925092565b60008060008060808587031215611da257600080fd5b6000611db087828801611c1b565b9450506020611dc187828801611c1b565b9350506040611dd287828801611cc3565b925050606085013567ffffffffffffffff811115611def57600080fd5b611dfb87828801611c6f565b91505092959194509250565b60008060408385031215611e1a57600080fd5b6000611e2885828601611c1b565b9250506020611e3985828601611c30565b9150509250929050565b600080600080600060a08688031215611e5b57600080fd5b6000611e6988828901611c1b565b955050602086013567ffffffffffffffff811115611e8657600080fd5b611e9288828901611c99565b9450506040611ea388828901611cc3565b9350506060611eb488828901611cc3565b9250506080611ec588828901611c1b565b9150509295509295909350565b60008060408385031215611ee557600080fd5b6000611ef385828601611c1b565b9250506020611f0485828601611cc3565b9150509250929050565b600060208284031215611f2057600080fd5b6000611f2e84828501611c45565b91505092915050565b600060208284031215611f4957600080fd5b6000611f5784828501611c5a565b91505092915050565b600060208284031215611f7257600080fd5b6000611f8084828501611cc3565b91505092915050565b611f9281612779565b82525050565b611fa18161278b565b82525050565b6000611fb28261267b565b611fbc8185612691565b9350611fcc8185602086016127fc565b611fd5816129c8565b840191505092915050565b6000611feb82612686565b611ff581856126a2565b93506120058185602086016127fc565b61200e816129c8565b840191505092915050565b600061202482612686565b61202e81856126b3565b935061203e8185602086016127fc565b80840191505092915050565b60006120576032836126a2565b9150612062826129d9565b604082019050919050565b600061207a601c836126a2565b915061208582612a28565b602082019050919050565b600061209d6028836126a2565b91506120a882612a51565b604082019050919050565b60006120c06024836126a2565b91506120cb82612aa0565b604082019050919050565b60006120e36019836126a2565b91506120ee82612aef565b602082019050919050565b6000612106602c836126a2565b915061211182612b18565b604082019050919050565b6000612129601b836126a2565b915061213482612b67565b602082019050919050565b600061214c602b836126a2565b915061215782612b90565b604082019050919050565b600061216f6038836126a2565b915061217a82612bdf565b604082019050919050565b6000612192602a836126a2565b915061219d82612c2e565b604082019050919050565b60006121b56029836126a2565b91506121c082612c7d565b604082019050919050565b60006121d86020836126a2565b91506121e382612ccc565b602082019050919050565b60006121fb602c836126a2565b915061220682612cf5565b604082019050919050565b600061221e6029836126a2565b915061222982612d44565b604082019050919050565b6000612241602f836126a2565b915061224c82612d93565b604082019050919050565b60006122646021836126a2565b915061226f82612de2565b604082019050919050565b60006122876031836126a2565b915061229282612e31565b604082019050919050565b6122a6816127e3565b82525050565b60006122b88285612019565b91506122c48284612019565b91508190509392505050565b60006020820190506122e56000830184611f89565b92915050565b60006080820190506123006000830187611f89565b61230d6020830186611f89565b61231a604083018561229d565b818103606083015261232c8184611fa7565b905095945050505050565b600060208201905061234c6000830184611f98565b92915050565b6000602082019050818103600083015261236c8184611fe0565b905092915050565b6000602082019050818103600083015261238d8161204a565b9050919050565b600060208201905081810360008301526123ad8161206d565b9050919050565b600060208201905081810360008301526123cd81612090565b9050919050565b600060208201905081810360008301526123ed816120b3565b9050919050565b6000602082019050818103600083015261240d816120d6565b9050919050565b6000602082019050818103600083015261242d816120f9565b9050919050565b6000602082019050818103600083015261244d8161211c565b9050919050565b6000602082019050818103600083015261246d8161213f565b9050919050565b6000602082019050818103600083015261248d81612162565b9050919050565b600060208201905081810360008301526124ad81612185565b9050919050565b600060208201905081810360008301526124cd816121a8565b9050919050565b600060208201905081810360008301526124ed816121cb565b9050919050565b6000602082019050818103600083015261250d816121ee565b9050919050565b6000602082019050818103600083015261252d81612211565b9050919050565b6000602082019050818103600083015261254d81612234565b9050919050565b6000602082019050818103600083015261256d81612257565b9050919050565b6000602082019050818103600083015261258d8161227a565b9050919050565b60006020820190506125a9600083018461229d565b92915050565b60006080820190506125c4600083018761229d565b6125d16020830186611f89565b6125de604083018561229d565b6125eb6060830184611f89565b95945050505050565b60006125fe61260f565b905061260a8282612861565b919050565b6000604051905090565b600067ffffffffffffffff82111561263457612633612999565b5b61263d826129c8565b9050602081019050919050565b600067ffffffffffffffff82111561266557612664612999565b5b61266e826129c8565b9050602081019050919050565b600081519050919050565b600081519050919050565b600082825260208201905092915050565b600082825260208201905092915050565b600081905092915050565b60006126c9826127e3565b91506126d4836127e3565b9250827fffffffffffffffffffffffffffffffffffffffffffffffffffffffffffffffff038211156127095761270861290c565b5b828201905092915050565b600061271f826127e3565b915061272a836127e3565b92508261273a5761273961293b565b5b828204905092915050565b6000612750826127e3565b915061275b836127e3565b92508282101561276e5761276d61290c565b5b828203905092915050565b6000612784826127c3565b9050919050565b60008115159050919050565b60007fffffffff0000000000000000000000000000000000000000000000000000000082169050919050565b600073ffffffffffffffffffffffffffffffffffffffff82169050919050565b6000819050919050565b82818337600083830152505050565b60005b8381101561281a5780820151818401526020810190506127ff565b83811115612829576000848401525b50505050565b6000600282049050600182168061284757607f821691505b6020821081141561285b5761285a61296a565b5b50919050565b61286a826129c8565b810181811067ffffffffffffffff8211171561288957612888612999565b5b80604052505050565b600061289d826127e3565b91507fffffffffffffffffffffffffffffffffffffffffffffffffffffffffffffffff8214156128d0576128cf61290c565b5b600182019050919050565b60006128e6826127e3565b91506128f1836127e3565b9250826129015761290061293b565b5b828206905092915050565b7f4e487b7100000000000000000000000000000000000000000000000000000000600052601160045260246000fd5b7f4e487b7100000000000000000000000000000000000000000000000000000000600052601260045260246000fd5b7f4e487b7100000000000000000000000000000000000000000000000000000000600052602260045260246000fd5b7f4e487b7100000000000000000000000000000000000000000000000000000000600052604160045260246000fd5b6000601f19601f8301169050919050565b7f4552433732313a207472616e7366657220746f206e6f6e20455243373231526560008201527f63656976657220696d706c656d656e7465720000000000000000000000000000602082015250565b7f4552433732313a20746f6b656e20616c7265616479206d696e74656400000000600082015250565b7f4e6674526f79616c74793a2055524920736574206f66206e6f6e65786973746560008201527f6e7420746f6b656e000000000000000000000000000000000000000000000000602082015250565b7f4552433732313a207472616e7366657220746f20746865207a65726f2061646460008201527f7265737300000000000000000000000000000000000000000000000000000000602082015250565b7f4552433732313a20617070726f766520746f2063616c6c657200000000000000600082015250565b7f4552433732313a206f70657261746f7220717565727920666f72206e6f6e657860008201527f697374656e7420746f6b656e0000000000000000000000000000000000000000602082015250565b7f4e6674526f79616c74793a20496e76616c69642050657263656e740000000000600082015250565b7f4e6674526f79616c74793a2055524920717565727920666f72206e6f6e65786960008201527f7374656e7420746f6b656e000000000000000000000000000000000000000000602082015250565b7f4552433732313a20617070726f76652063616c6c6572206973206e6f74206f7760008201527f6e6572206e6f7220617070726f76656420666f7220616c6c0000000000000000602082015250565b7f4552433732313a2062616c616e636520717565727920666f7220746865207a6560008201527f726f206164647265737300000000000000000000000000000000000000000000602082015250565b7f4552433732313a206f776e657220717565727920666f72206e6f6e657869737460008201527f656e7420746f6b656e0000000000000000000000000000000000000000000000602082015250565b7f4552433732313a206d696e7420746f20746865207a65726f2061646472657373600082015250565b7f4552433732313a20617070726f76656420717565727920666f72206e6f6e657860008201527f697374656e7420746f6b656e0000000000000000000000000000000000000000602082015250565b7f4552433732313a207472616e73666572206f6620746f6b656e2074686174206960008201527f73206e6f74206f776e0000000000000000000000000000000000000000000000602082015250565b7f4552433732314d657461646174613a2055524920717565727920666f72206e6f60008201527f6e6578697374656e7420746f6b656e0000000000000000000000000000000000602082015250565b7f4552433732313a20617070726f76616c20746f2063757272656e74206f776e6560008201527f7200000000000000000000000000000000000000000000000000000000000000602082015250565b7f4552433732313a207472616e736665722063616c6c6572206973206e6f74206f60008201527f776e6572206e6f7220617070726f766564000000000000000000000000000000602082015250565b612e8981612779565b8114612e9457600080fd5b50565b612ea08161278b565b8114612eab57600080fd5b50565b612eb781612797565b8114612ec257600080fd5b50565b612ece816127e3565b8114612ed957600080fd5b5056fea2646970667358221220278a2e8b63bb455dc035e799dc36895dfbfae98eb616d61d52b0d13117f246c464736f6c63430008040033",
  "linkReferences": {},
  "deployedLinkReferences": {}
}