{
  "_format": "hh-sol-artifact-1",
  "contractName": "NftTrader",
  "sourceName": "contracts/NftTrader.sol",
  "abi": [
    {
      "anonymous": false,
      "inputs": [
        {
          "indexed": false,
          "internalType": "uint256",
          "name": "price",
          "type": "uint256"
        },
        {
          "indexed": true,
          "internalType": "address",
          "name": "contractAddr",
          "type": "address"
        },
        {
          "indexed": false,
          "internalType": "uint256",
          "name": "tokenId",
          "type": "uint256"
        }
      ],
      "name": "AddTrade",
      "type": "event"
    },
    {
      "anonymous": false,
      "inputs": [
        {
          "indexed": true,
          "internalType": "address",
          "name": "destAddr",
          "type": "address"
        },
        {
          "indexed": false,
          "internalType": "uint256",
          "name": "amount",
          "type": "uint256"
        }
      ],
      "name": "ClaimRoyalty",
      "type": "event"
    },
    {
      "anonymous": false,
      "inputs": [
        {
          "indexed": true,
          "internalType": "address",
          "name": "contractAddr",
          "type": "address"
        },
        {
          "indexed": false,
          "internalType": "uint256",
          "name": "tokenId",
          "type": "uint256"
        },
        {
          "indexed": false,
          "internalType": "uint256",
          "name": "price",
          "type": "uint256"
        }
      ],
      "name": "Purchase",
      "type": "event"
    },
    {
      "anonymous": false,
      "inputs": [
        {
          "indexed": true,
          "internalType": "address",
          "name": "destAddr",
          "type": "address"
        },
        {
          "indexed": false,
          "internalType": "uint256",
          "name": "amount",
          "type": "uint256"
        }
      ],
      "name": "Withdraw",
      "type": "event"
    },
    {
      "inputs": [
        {
          "internalType": "uint256",
          "name": "price",
          "type": "uint256"
        },
        {
          "internalType": "address",
          "name": "contractAddr",
          "type": "address"
        },
        {
          "internalType": "uint256",
          "name": "tokenId",
          "type": "uint256"
        }
      ],
      "name": "addTrade",
      "outputs": [],
      "stateMutability": "nonpayable",
      "type": "function"
    },
    {
      "inputs": [
        {
          "internalType": "address",
          "name": "",
          "type": "address"
        }
      ],
      "name": "balances",
      "outputs": [
        {
          "internalType": "uint256",
          "name": "",
          "type": "uint256"
        }
      ],
      "stateMutability": "view",
      "type": "function"
    },
    {
      "inputs": [
        {
          "internalType": "address payable",
          "name": "destAddr",
          "type": "address"
        }
      ],
      "name": "claimRoyalty",
      "outputs": [],
      "stateMutability": "nonpayable",
      "type": "function"
    },
    {
      "inputs": [
        {
          "internalType": "address",
          "name": "contractAddr",
          "type": "address"
        },
        {
          "internalType": "uint256",
          "name": "tokenId",
          "type": "uint256"
        }
      ],
      "name": "purchase",
      "outputs": [],
      "stateMutability": "payable",
      "type": "function"
    },
    {
      "inputs": [
        {
          "internalType": "address",
          "name": "",
          "type": "address"
        }
      ],
      "name": "royaltyBalances",
      "outputs": [
        {
          "internalType": "uint256",
          "name": "",
          "type": "uint256"
        }
      ],
      "stateMutability": "view",
      "type": "function"
    },
    {
      "inputs": [
        {
          "internalType": "address",
          "name": "",
          "type": "address"
        },
        {
          "internalType": "uint256",
          "name": "",
          "type": "uint256"
        }
      ],
      "name": "trades",
      "outputs": [
        {
          "internalType": "uint256",
          "name": "price",
          "type": "uint256"
        },
        {
          "internalType": "address",
          "name": "seller",
          "type": "address"
        }
      ],
      "stateMutability": "view",
      "type": "function"
    },
    {
      "inputs": [
        {
          "internalType": "address payable",
          "name": "destAddr",
          "type": "address"
        }
      ],
      "name": "withdraw",
      "outputs": [],
      "stateMutability": "nonpayable",
      "type": "function"
    }
  ],
  "bytecode": "0x608060405234801561001057600080fd5b50611261806100206000396000f3fe6080604052600436106100705760003560e01c806333f6df8f1161004e57806333f6df8f1461011957806351cff8d9146101565780638de932221461017f578063eabb0b761461019b57610070565b806310c44d421461007557806313d8f3e41461009e57806327e235e3146100dc575b600080fd5b34801561008157600080fd5b5061009c60048036038101906100979190610c27565b6101c4565b005b3480156100aa57600080fd5b506100c560048036038101906100c09190610c50565b610329565b6040516100d3929190610ed5565b60405180910390f35b3480156100e857600080fd5b5061010360048036038101906100fe9190610bd5565b61037a565b6040516101109190610eba565b60405180910390f35b34801561012557600080fd5b50610140600480360381019061013b9190610bd5565b610392565b60405161014d9190610eba565b60405180910390f35b34801561016257600080fd5b5061017d60048036038101906101789190610c27565b6103aa565b005b61019960048036038101906101949190610c50565b61050f565b005b3480156101a757600080fd5b506101c260048036038101906101bd9190610cb5565b61086e565b005b6000600260003373ffffffffffffffffffffffffffffffffffffffff1673ffffffffffffffffffffffffffffffffffffffff1681526020019081526020016000205490506000811161024b576040517f08c379a000000000000000000000000000000000000000000000000000000000815260040161024290610e3a565b60405180910390fd5b8173ffffffffffffffffffffffffffffffffffffffff166108fc829081150290604051600060405180830381858888f19350505050158015610291573d6000803e3d6000fd5b506000600260003373ffffffffffffffffffffffffffffffffffffffff1673ffffffffffffffffffffffffffffffffffffffff168152602001908152602001600020819055508173ffffffffffffffffffffffffffffffffffffffff167fab839b3cce33e1fa1a469ab613253d8183c29e4fd3341cc2cd6abe1d0f932bfc8260405161031d9190610eba565b60405180910390a25050565b6000602052816000526040600020602052806000526040600020600091509150508060000154908060010160009054906101000a900473ffffffffffffffffffffffffffffffffffffffff16905082565b60016020528060005260406000206000915090505481565b60026020528060005260406000206000915090505481565b6000600160003373ffffffffffffffffffffffffffffffffffffffff1673ffffffffffffffffffffffffffffffffffffffff16815260200190815260200160002054905060008111610431576040517f08c379a000000000000000000000000000000000000000000000000000000000815260040161042890610e3a565b60405180910390fd5b8173ffffffffffffffffffffffffffffffffffffffff166108fc829081150290604051600060405180830381858888f19350505050158015610477573d6000803e3d6000fd5b506000600160003373ffffffffffffffffffffffffffffffffffffffff1673ffffffffffffffffffffffffffffffffffffffff168152602001908152602001600020819055508173ffffffffffffffffffffffffffffffffffffffff167f884edad9ce6fa2440d8a54cc123490eb96d2768479d49ff9c7366125a9424364826040516105039190610eba565b60405180910390a25050565b60008060008473ffffffffffffffffffffffffffffffffffffffff1673ffffffffffffffffffffffffffffffffffffffff1681526020019081526020016000206000838152602001908152602001600020604051806040016040529081600082015481526020016001820160009054906101000a900473ffffffffffffffffffffffffffffffffffffffff1673ffffffffffffffffffffffffffffffffffffffff1673ffffffffffffffffffffffffffffffffffffffff168152505090508060000151341015610614576040517f08c379a000000000000000000000000000000000000000000000000000000000815260040161060b90610e7a565b60405180910390fd5b60008390506000806000808473ffffffffffffffffffffffffffffffffffffffff1663a65ff74c886040518263ffffffff1660e01b81526004016106589190610eba565b60806040518083038186803b15801561067057600080fd5b505afa158015610684573d6000803e3d6000fd5b505050506040513d601f19601f820116820180604052508101906106a89190610d04565b9350935093509350600061271061ffff1634866106c59190610fbf565b6106cf9190610f8e565b9050600061271061ffff1634856106e69190610fbf565b6106f09190610f8e565b905081600260008773ffffffffffffffffffffffffffffffffffffffff1673ffffffffffffffffffffffffffffffffffffffff16815260200190815260200160002060008282546107419190610f38565b9250508190555080600260008573ffffffffffffffffffffffffffffffffffffffff1673ffffffffffffffffffffffffffffffffffffffff16815260200190815260200160002060008282546107979190610f38565b925050819055508082346107ab9190611019565b6107b59190611019565b600160008a6020015173ffffffffffffffffffffffffffffffffffffffff1673ffffffffffffffffffffffffffffffffffffffff16815260200190815260200160002060008282546108079190610f38565b925050819055508973ffffffffffffffffffffffffffffffffffffffff167f12cb4648cf3058b17ceeb33e579f8b0bc269fe0843f3900b8e24b6c54871703c8a8a6000015160405161085a929190610efe565b60405180910390a250505050505050505050565b60008290503373ffffffffffffffffffffffffffffffffffffffff168173ffffffffffffffffffffffffffffffffffffffff16636352211e846040518263ffffffff1660e01b81526004016108c39190610eba565b60206040518083038186803b1580156108db57600080fd5b505afa1580156108ef573d6000803e3d6000fd5b505050506040513d601f19601f820116820180604052508101906109139190610bfe565b73ffffffffffffffffffffffffffffffffffffffff1614610969576040517f08c379a000000000000000000000000000000000000000000000000000000000815260040161096090610e5a565b60405180910390fd5b8073ffffffffffffffffffffffffffffffffffffffff1663e985e9c533306040518363ffffffff1660e01b81526004016109a4929190610e11565b60206040518083038186803b1580156109bc57600080fd5b505afa1580156109d0573d6000803e3d6000fd5b505050506040513d601f19601f820116820180604052508101906109f49190610c8c565b610a33576040517f08c379a0000000000000000000000000000000000000000000000000000000008152600401610a2a90610e9a565b60405180910390fd5b60405180604001604052808581526020013373ffffffffffffffffffffffffffffffffffffffff168152506000808573ffffffffffffffffffffffffffffffffffffffff1673ffffffffffffffffffffffffffffffffffffffff16815260200190815260200160002060008481526020019081526020016000206000820151816000015560208201518160010160006101000a81548173ffffffffffffffffffffffffffffffffffffffff021916908373ffffffffffffffffffffffffffffffffffffffff1602179055509050508273ffffffffffffffffffffffffffffffffffffffff167fc01e946daf6d0173cfe5f9a47715af16ee23f0a1b6725758db4cf7c472b6eb758584604051610b49929190610efe565b60405180910390a250505050565b600081359050610b66816111cf565b92915050565b600081519050610b7b816111cf565b92915050565b600081359050610b90816111e6565b92915050565b600081519050610ba5816111fd565b92915050565b600081359050610bba81611214565b92915050565b600081519050610bcf81611214565b92915050565b600060208284031215610be757600080fd5b6000610bf584828501610b57565b91505092915050565b600060208284031215610c1057600080fd5b6000610c1e84828501610b6c565b91505092915050565b600060208284031215610c3957600080fd5b6000610c4784828501610b81565b91505092915050565b60008060408385031215610c6357600080fd5b6000610c7185828601610b57565b9250506020610c8285828601610bab565b9150509250929050565b600060208284031215610c9e57600080fd5b6000610cac84828501610b96565b91505092915050565b600080600060608486031215610cca57600080fd5b6000610cd886828701610bab565b9350506020610ce986828701610b57565b9250506040610cfa86828701610bab565b9150509250925092565b60008060008060808587031215610d1a57600080fd5b6000610d2887828801610bc0565b9450506020610d3987828801610b6c565b9350506040610d4a87828801610bc0565b9250506060610d5b87828801610b6c565b91505092959194509250565b610d708161104d565b82525050565b6000610d83600883610f27565b9150610d8e82611105565b602082019050919050565b6000610da6601e83610f27565b9150610db18261112e565b602082019050919050565b6000610dc9601d83610f27565b9150610dd482611157565b602082019050919050565b6000610dec602483610f27565b9150610df782611180565b604082019050919050565b610e0b8161109d565b82525050565b6000604082019050610e266000830185610d67565b610e336020830184610d67565b9392505050565b60006020820190508181036000830152610e5381610d76565b9050919050565b60006020820190508181036000830152610e7381610d99565b9050919050565b60006020820190508181036000830152610e9381610dbc565b9050919050565b60006020820190508181036000830152610eb381610ddf565b9050919050565b6000602082019050610ecf6000830184610e02565b92915050565b6000604082019050610eea6000830185610e02565b610ef76020830184610d67565b9392505050565b6000604082019050610f136000830185610e02565b610f206020830184610e02565b9392505050565b600082825260208201905092915050565b6000610f438261109d565b9150610f4e8361109d565b9250827fffffffffffffffffffffffffffffffffffffffffffffffffffffffffffffffff03821115610f8357610f826110a7565b5b828201905092915050565b6000610f998261109d565b9150610fa48361109d565b925082610fb457610fb36110d6565b5b828204905092915050565b6000610fca8261109d565b9150610fd58361109d565b9250817fffffffffffffffffffffffffffffffffffffffffffffffffffffffffffffffff048311821515161561100e5761100d6110a7565b5b828202905092915050565b60006110248261109d565b915061102f8361109d565b925082821015611042576110416110a7565b5b828203905092915050565b60006110588261107d565b9050919050565b600061106a8261107d565b9050919050565b60008115159050919050565b600073ffffffffffffffffffffffffffffffffffffffff82169050919050565b6000819050919050565b7f4e487b7100000000000000000000000000000000000000000000000000000000600052601160045260246000fd5b7f4e487b7100000000000000000000000000000000000000000000000000000000600052601260045260246000fd5b7f4e6f2046756e6473000000000000000000000000000000000000000000000000600082015250565b7f4e66745472616465723a2063616c6c6572206973206e6f74206f776e65720000600082015250565b7f4e66745472616465723a20496e73756666696369656e742066756e6473000000600082015250565b7f4e66745472616465723a20636f6e7472616374206d757374206265206170707260008201527f6f76656400000000000000000000000000000000000000000000000000000000602082015250565b6111d88161104d565b81146111e357600080fd5b50565b6111ef8161105f565b81146111fa57600080fd5b50565b61120681611071565b811461121157600080fd5b50565b61121d8161109d565b811461122857600080fd5b5056fea26469706673582212200fe6f44798c445821bcfed4fb74c63885bdeb802a2920eca0d10ca51c366d1ca64736f6c63430008040033",
  "linkReferences": {},
  "deployedLinkReferences": {}
}